{
  "contractName": "TheBESTElection",
  "abi": [
    {
      "constant": true,
      "inputs": [],
      "name": "playerCount",
      "outputs": [
        {
          "name": "",
          "type": "uint256"
        }
      ],
      "payable": false,
      "stateMutability": "view",
      "type": "function",
      "signature": "0x302bcc57"
    },
    {
      "constant": true,
      "inputs": [
        {
          "name": "",
          "type": "address"
        }
      ],
      "name": "voters",
      "outputs": [
        {
          "name": "",
          "type": "bool"
        }
      ],
      "payable": false,
      "stateMutability": "view",
      "type": "function",
      "signature": "0xa3ec138d"
    },
    {
      "constant": true,
      "inputs": [
        {
          "name": "",
          "type": "uint256"
        }
      ],
      "name": "players",
      "outputs": [
        {
          "name": "id",
          "type": "uint256"
        },
        {
          "name": "name",
          "type": "string"
        },
        {
          "name": "voteCount",
          "type": "uint256"
        }
      ],
      "payable": false,
      "stateMutability": "view",
      "type": "function",
      "signature": "0xf71d96cb"
    },
    {
      "inputs": [],
      "payable": false,
      "stateMutability": "nonpayable",
      "type": "constructor",
      "signature": "constructor"
    },
    {
      "anonymous": false,
      "inputs": [
        {
          "indexed": true,
          "name": "_playerId",
          "type": "uint256"
        }
      ],
      "name": "votedEvent",
      "type": "event",
      "signature": "0xfff3c900d938d21d0990d786e819f29b8d05c1ef587b462b939609625b684b16"
    },
    {
      "constant": false,
      "inputs": [
        {
          "name": "_playerId",
          "type": "uint256"
        }
      ],
      "name": "vote",
      "outputs": [],
      "payable": false,
      "stateMutability": "nonpayable",
      "type": "function",
      "signature": "0x0121b93f"
    }
  ],
  "bytecode": "0x608060405234801561001057600080fd5b5061005e6040805190810160405280600c81526020017f4c696f6e656c204d6573736900000000000000000000000000000000000000008152506100fd640100000000026401000000009004565b6100ab6040805190810160405280601181526020017f437269737469616e6f20526f6e616c646f0000000000000000000000000000008152506100fd640100000000026401000000009004565b6100f86040805190810160405280600c81526020017f4c756b61204d6f647269c48700000000000000000000000000000000000000008152506100fd640100000000026401000000009004565b61021e565b600260008154809291906001019190505550606060405190810160405280600254815260200182815260200160008152506000806002548152602001908152602001600020600082015181600001556020820151816001019080519060200190610168929190610179565b506040820151816002015590505050565b828054600181600116156101000203166002900490600052602060002090601f016020900481019282601f106101ba57805160ff19168380011785556101e8565b828001600101855582156101e8579182015b828111156101e75782518255916020019190600101906101cc565b5b5090506101f591906101f9565b5090565b61021b91905b808211156102175760008160009055506001016101ff565b5090565b90565b61042e8061022d6000396000f3fe608060405260043610610062576000357c0100000000000000000000000000000000000000000000000000000000900463ffffffff1680630121b93f14610067578063302bcc57146100a2578063a3ec138d146100cd578063f71d96cb14610136575b600080fd5b34801561007357600080fd5b506100a06004803603602081101561008a57600080fd5b81019080803590602001909291905050506101f8565b005b3480156100ae57600080fd5b506100b761031a565b6040518082815260200191505060405180910390f35b3480156100d957600080fd5b5061011c600480360360208110156100f057600080fd5b81019080803573ffffffffffffffffffffffffffffffffffffffff169060200190929190505050610320565b604051808215151515815260200191505060405180910390f35b34801561014257600080fd5b5061016f6004803603602081101561015957600080fd5b8101908080359060200190929190505050610340565b6040518084815260200180602001838152602001828103825284818151815260200191508051906020019080838360005b838110156101bb5780820151818401526020810190506101a0565b50505050905090810190601f1680156101e85780820380516001836020036101000a031916815260200191505b5094505050505060405180910390f35b600160003373ffffffffffffffffffffffffffffffffffffffff1673ffffffffffffffffffffffffffffffffffffffff16815260200190815260200160002060009054906101000a900460ff1615151561025157600080fd5b60008111801561026357506002548111155b151561026e57600080fd5b60018060003373ffffffffffffffffffffffffffffffffffffffff1673ffffffffffffffffffffffffffffffffffffffff16815260200190815260200160002060006101000a81548160ff02191690831515021790555060008082815260200190815260200160002060020160008154809291906001019190505550807ffff3c900d938d21d0990d786e819f29b8d05c1ef587b462b939609625b684b1660405160405180910390a250565b60025481565b60016020528060005260406000206000915054906101000a900460ff1681565b6000602052806000526040600020600091509050806000015490806001018054600181600116156101000203166002900480601f0160208091040260200160405190810160405280929190818152602001828054600181600116156101000203166002900480156103f25780601f106103c7576101008083540402835291602001916103f2565b820191906000526020600020905b8154815290600101906020018083116103d557829003601f168201915b505050505090806002015490508356fea165627a7a72305820c09bf157b4eb82a787510877e8d3305a7f2a943502f4d379ef2d6654fa2bc9dc0029",
  "source": "pragma solidity 0.5.0;\n\ncontract TheBESTElection{\n\t//string public candidate;\n\n\tstruct Player{\n\t\tuint id;\n\t\tstring name;\n\t\tuint voteCount;\n\t}\n\tmapping(uint => Player) public players;\n\t//In this case, the key to the mapping is an unsigned integer,\n\t// and the value is a Candidate structure type that we just defined.\n\tmapping(address => bool) public voters;\n\n\tuint public playerCount;\n\n\t\n\tfunction addPlayer (string memory _name) private {\n\t\tplayerCount++;\n\t\tplayers[playerCount]=Player(playerCount, _name, 0);\n\t}\n\n\tevent votedEvent( uint indexed _playerId);\n\t//checks if any event comes with logs of given candId\n\t//above line added to check for trigger after voting\n\n\tfunction vote(uint _playerId) public{\n\t\trequire(!voters[msg.sender]); \n\t\t//did not vote before, ie voter[id] should be 0\n\t\trequire(_playerId > 0 && _playerId <= playerCount);\n\n\t\tvoters[msg.sender]=true; //here we vote and v[id] = 1\n\n\t\tplayers[_playerId].voteCount ++;\n\n\t\t//inc vote count of that cand by 1\n\n\t\temit votedEvent(_playerId);\n\n\t\t//added to call it only after voting is called\n\t\t//added emit requres for new versions\n\t}\n\n\tconstructor() public{ //updated constructor function\n\t\taddPlayer(\"Lionel Messi\");\n\t\taddPlayer(\"Cristiano Ronaldo\");\n\t\taddPlayer(\"Luka Modrić\");\n\t\t\n\t}\n}",
  "sourcePath": "/home/turr/Desktop/red/proj/FIFATheBEST/contracts/TheBESTElection.sol",
  "compiler": {
    "name": "solc",
    "version": "0.5.0+commit.1d4f565a.Emscripten.clang"
  },
  "schemaVersion": "3.0.6",
  "updatedAt": "2019-07-25T19:21:02.389Z",
  "devdoc": {
    "methods": {}
  },
  "userdoc": {
    "methods": {}
  }
}